{
  "contractName": "DeedMultiPayout",
  "abi": [
    {
      "inputs": [
        {
          "internalType": "address",
          "name": "_owner",
          "type": "address"
        },
        {
          "internalType": "address payable",
          "name": "_beneficiary",
          "type": "address"
        },
        {
          "internalType": "uint256",
          "name": "time",
          "type": "uint256"
        }
      ],
      "stateMutability": "payable",
      "type": "constructor",
      "payable": true
    },
    {
      "inputs": [],
      "name": "PAYOUTINTERVAL",
      "outputs": [
        {
          "internalType": "uint256",
          "name": "",
          "type": "uint256"
        }
      ],
      "stateMutability": "view",
      "type": "function",
      "constant": true
    },
    {
      "inputs": [],
      "name": "TOTALPAYOUTS",
      "outputs": [
        {
          "internalType": "uint256",
          "name": "",
          "type": "uint256"
        }
      ],
      "stateMutability": "view",
      "type": "function",
      "constant": true
    },
    {
      "inputs": [],
      "name": "amount",
      "outputs": [
        {
          "internalType": "uint256",
          "name": "",
          "type": "uint256"
        }
      ],
      "stateMutability": "view",
      "type": "function",
      "constant": true
    },
    {
      "inputs": [],
      "name": "beneficiary",
      "outputs": [
        {
          "internalType": "address payable",
          "name": "",
          "type": "address"
        }
      ],
      "stateMutability": "view",
      "type": "function",
      "constant": true
    },
    {
      "inputs": [],
      "name": "earliestTime",
      "outputs": [
        {
          "internalType": "uint256",
          "name": "",
          "type": "uint256"
        }
      ],
      "stateMutability": "view",
      "type": "function",
      "constant": true
    },
    {
      "inputs": [],
      "name": "owner",
      "outputs": [
        {
          "internalType": "address",
          "name": "",
          "type": "address"
        }
      ],
      "stateMutability": "view",
      "type": "function",
      "constant": true
    },
    {
      "inputs": [],
      "name": "paidPayout",
      "outputs": [
        {
          "internalType": "uint256",
          "name": "",
          "type": "uint256"
        }
      ],
      "stateMutability": "view",
      "type": "function",
      "constant": true
    },
    {
      "inputs": [],
      "name": "withdrawMoney",
      "outputs": [],
      "stateMutability": "nonpayable",
      "type": "function"
    }
  ],
  "bytecode": "0x608060405260405161063838038061063883398101604081905261002291610076565b60008054600160a060020a03808616600160a060020a031992831617909255600180549285169290911691909117905561005c81426100b8565b60025561006a6005346100f5565b60035550610146915050565b60008060006060848603121561008a578283fd5b83516100958161012e565b60208501519093506100a68161012e565b80925050604084015190509250925092565b600082198211156100f0577f4e487b710000000000000000000000000000000000000000000000000000000081526011600452602481fd5b500190565b600082610129577f4e487b710000000000000000000000000000000000000000000000000000000081526012600452602481fd5b500490565b600160a060020a038116811461014357600080fd5b50565b6104e3806101556000396000f3fe608060405234801561001057600080fd5b50600436106100a5576000357c0100000000000000000000000000000000000000000000000000000000900480636bb276f2116100785780636bb276f2146100ed5780638da5cb5b146100f5578063aa8c217c146100fd578063ac44600214610105576100a5565b806306f0612b146100aa5780631bd03691146100c857806338af3eed146100d05780636ab3824e146100e5575b600080fd5b6100b261010f565b6040516100bf91906103ee565b60405180910390f35b6100b2610115565b6100d861011a565b6040516100bf9190610302565b6100b2610136565b6100b261013c565b6100d8610141565b6100b261015d565b61010d610163565b005b60045481565b600581565b60015473ffffffffffffffffffffffffffffffffffffffff1681565b60025481565b600f81565b60005473ffffffffffffffffffffffffffffffffffffffff1681565b60035481565b60015473ffffffffffffffffffffffffffffffffffffffff1633146101bd576040517f08c379a00000000000000000000000000000000000000000000000000000000081526004016101b490610323565b60405180910390fd5b6002544210156101f9576040517f08c379a00000000000000000000000000000000000000000000000000000000081526004016101b4906103b7565b60056004541115610236576040517f08c379a00000000000000000000000000000000000000000000000000000000081526004016101b490610380565b6000600f600254426102489190610467565b610252919061040f565b90506000600454826102649190610467565b905060056004548261027691906103f7565b11610281578061028f565b60045461028f906005610467565b905080600460008282546102a391906103f7565b909155505060015460035473ffffffffffffffffffffffffffffffffffffffff909116906108fc906102d59084610448565b6040518115909202916000818181858888f193505050501580156102fd573d6000803e3d6000fd5b505050565b73ffffffffffffffffffffffffffffffffffffffff91909116815260200190565b60208082526023908201527f4f6e6c792062656e65666963696172792063616e207769746864726177206d6f60408201527f6e65790000000000000000000000000000000000000000000000000000000000606082015260800190565b60208082526015908201527f5265616368656420746f74616c207061796f7574730000000000000000000000604082015260600190565b6020808252600f908201527f5061796f7574206973206561726c790000000000000000000000000000000000604082015260600190565b90815260200190565b6000821982111561040a5761040a61047e565b500190565b600082610443577f4e487b710000000000000000000000000000000000000000000000000000000081526012600452602481fd5b500490565b60008160001904831182151516156104625761046261047e565b500290565b6000828210156104795761047961047e565b500390565b7f4e487b7100000000000000000000000000000000000000000000000000000000600052601160045260246000fdfea2646970667358221220c1920ea735658bdfb23a31acb8d9ca0a2c2b5178d282124e671174c6dd0da80c64736f6c63430008000033",
  "immutableReferences": {},
  "source": "//SPDX-License-Identifier: UNLICENSED\npragma solidity ^0.8.0;\n\ncontract DeedMultiPayout {\n    address public owner;\n    address payable public beneficiary;\n\n    uint256 public earliestTime;\n    uint256 public amount;\n\n    uint constant public TOTALPAYOUTS = 5;\n    uint constant public PAYOUTINTERVAL = 15;\n    uint public paidPayout;\n\n    constructor (address _owner, address payable _beneficiary, uint256 time) payable {\n        owner = _owner;\n        beneficiary = _beneficiary;\n        earliestTime = block.timestamp + time;\n        amount = msg.value / TOTALPAYOUTS;\n    }\n\n    function withdrawMoney() public{\n        require(msg.sender == beneficiary, \"Only beneficiary can withdraw money\");\n        require(block.timestamp >= earliestTime, \"Payout is early\");\n        require(paidPayout <= TOTALPAYOUTS, \"Reached total payouts\");\n\n        uint eligiblePayouts = (block.timestamp - earliestTime) / PAYOUTINTERVAL;\n        uint duePayouts = eligiblePayouts - paidPayout;\n\n        duePayouts = duePayouts + paidPayout > TOTALPAYOUTS ? TOTALPAYOUTS - paidPayout : duePayouts;\n        paidPayout += duePayouts;\n        beneficiary.transfer(duePayouts * amount);\n    }\n}",
  "sourcePath": "/home/conbon/Documents/DeedMultiPayout/contracts/DeedMultiPayout.sol",
  "compiler": {
    "name": "solc",
    "version": "0.8.0+commit.c7dfd78e.Emscripten.clang"
  },
  "schemaVersion": "3.4.1",
  "updatedAt": "2021-05-27T20:34:00.746Z",
  "networkType": "ethereum",
  "devdoc": {
    "kind": "dev",
    "methods": {},
    "version": 1
  },
  "userdoc": {
    "kind": "user",
    "methods": {},
    "version": 1
  }
}